S00F0000415474696E79302E737265638C
S113000019C033C032C031C030C02FC02EC02DC083
S11300102CC02BC02AC029C028C027C026C025C098
S113002024C023C022C021C020C01FC01EC01DC0C8
S11300301CC01BC011241FBECFEFCDBFDFE3DEBF4A
S11300401FE3A0E0BFE3E0EEF8E002C005900D92EC
S1130050A630B107D9F72FE3A6E0BFE301C01D9294
S1130060AC34B207E1F702D0B9C3CACFCF93DF9360
S1130070CDB7DEB740D2882371F44FE05FE363E08D
S113008088E29FE340D2882359F080910E3F8F5F2E
S113009080930E3F05C080910E3F8F5F80930E3F8B
S11300A080910E3F8F5F80930E3FFACFAF92BF9245
S11300B0CF92DF92EF92FF920F931F93CF93DF9330
S11300C0CDB7DEB72597CDBFDEBF80E690E0FC015B
S11300D08081882F90E081709927892B29F080E016
S11300E09DE7A0E0B0E013C080E690E0FC018081D1
S11300F0882F90E083709927892B29F080E094E27F
S1130100A4EFB0E004C080E094E2A4EFB0E08983FF
S11301109A83AB83BC8380E690E0FC018181882FC5
S113012090E081709927892B09F49BC080E690E0C8
S1130130FC01818186958F708F5F8D838D818730DF
S113014008F480C08D81882F90E08431910509F4F2
S11301504FC08531910534F48031910559F04297AF
S1130160C9F17FC08631910509F450C0489709F45C
S11301705BC077C089819A81AB81BC81BC01CD0110
S11301802BEA3AEA4AEA5AEAD0D2A22EB32EC42E75
S1130190D52EE62EF72E082F192F2A2D3B2D4C2D68
S11301A05D2D6E2D7F2D802F912F00E2E7D2A22EA0
S11301B0B32EC42ED52EE62EF72E082F192FD601D6
S11301C0C501B695A79597958795B695A7959795E3
S11301D087954BC089819A81AB81BC812AE030E04C
S11301E040E050E0BC01CD017ED2DA01C9013DC03E
S11301F089819A81AB81BC812CE030E040E050E001
S1130200BC01CD0170D2DA01C9012FC089819A8164
S1130210AB81BC8128E130E040E050E0BC01CD017D
S113022062D2DA01C90121C089819A81AB81BC8182
S113023020E330E040E050E0BC01CD0154D2DA01CB
S1130240C90113C08D81282F30E089819A81AB8147
S1130250BC8104C0B695A795979587952A95D2F742
S113026004C089819A81AB81BC81BC01CD012596F2
S1130270CDBFDEBFDF91CF911F910F91FF90EF9023
S1130280DF90CF90BF90AF900895CF93DF931F92EC
S1130290CDB7DEB7898380E098E02981FC01228311
S11302A0000080E098E0FC0184818823D4F780E09A
S11302B098E0FC0180810F90DF91CF910895CF9356
S11302C0DF9300D000D0CDB7DEB780E294E024E025
S11302D0FC01218380E294E028E0FC01228B80E091
S11302E098E028E0FC01258380E098E028ECFC01FC
S11302F0268380E098E023E0FC012783D7DEDC013D
S1130300CB0189839A83AB83BC8389819A81AB8136
S1130310BC81880F991FAA1FBB1F880F991FAA1F92
S1130320BB1F20E032EC41E050E0BC01CD01DBD149
S1130330DA01C9018093003F9093013FA093023FEB
S1130340B093033F89819A81AB81BC81880F991F47
S1130350AA1FBB1F880F991FAA1FBB1F20E835E2E5
S113036040E050E0BC01CD01BED1DA01C901809367
S1130370043F9093053F20E038E08091003F909146
S1130380013FA091023FB091033FF901808791871B
S113039000002496CDBFDEBFDF91CF910895CF93A7
S11303A0DF931F92CDB7DEB789838981882319F043
S11303B08FEF6BDF02C080E068DF00000F90DF91F9
S11303C0CF910895CF93DF93CDB7DEB78FEF5DDF85
S11303D0982F81E09F3F09F080E0DF91CF9108954D
S11303E0CF93DF931F92CDB7DEB7198280E098E0F8
S11303F020E038E0F90126812F77FC01268380E094
S113040098E020E038E0F90126812068FC01268389
S113041080E098E02091043F3091053FFC01208763
S1130420318780EF32DF898320E038E08091003F1C
S11304309091013FA091023FB091033FF901808761
S1130440918789810F90DF91CF910895CF93DF93A6
S1130450CDB7DEB72897CDBFDEBF8B839C836D837A
S11304604E835F83288719828B819C81892B11F4A9
S113047084E03BC08E819F8168851AD18A838A81FA
S1130480882369F58E819F81FC018081883201F582
S113049089818F5F89838E819F8108968E839F8354
S11304A017C08E819F8113D18A838A81882311F09A
S11304B06CD015C08E819F81FC018081883241F40B
S11304C089818F5F89838E819F8108968E839F8324
S11304D033D0882321F499818D81981710F38B816F
S11304E09C812981FC0120838A812896CDBFDEBFAF
S11304F0DF91CF910895CF93DF93CDB7DEB73AD094
S1130500DF91CF910895CF93DF93CDB7DEB72597D1
S1130510CDBFDEBF89839A836B834C835D834C811B
S11305205D8189819A8120E06B8190DF2596CDBF22
S1130530DEBFDF91CF9108958091083F08950F9316
S11305401F93CF93DF93D82F08E010E0C1E08D2FE5
S11305508C2325DFCC0F01501109C9F7DF91CF910E
S11305601F910F9108953CDF882311F080E00895D6
S113057086E008951092073FA2DE8FE891E001978C
S1130580F1F700C00000EFDF08951092073FEBDFA2
S11305900895CF92DF92EF92FF920F931F93CF9320
S11305A0DF93009709F462C0C62F8C018091083F45
S11305B0811163C0D8DF882329F01092093F10927B
S11305C0083F6DC0C13019F48CEEB9DF02C080EF72
S11305D0B6DFEE24E394C1E0D12CC12CF12CF2DE81
S11305E0D82FF0DED13009F045C0813009F04FC07A
S11305F02EC08091093FE81609F449C08E1550F0C9
S1130600F801EF0DF11D80818C2309F040C0DE2C30
S1130610D0E002C0DE2CD0E0F801EF0DF11D8081A6
S11306209C2F9095982390838D2FB9DEE394CC0F63
S113063059F4F801EF0DF11DE081EC25F0E0E052F2
S1130640F847C080F394C1E087E08F1540F6E0E4FA
S1130650EE1598F4C11011C0D092093FD1100DC00D
S113066081E08093083F1092073F07C084E017C0E1
S113067080E015C0D813D0CFBCCFF80180818111A0
S1130680F7CF1092093F1092083F82E008C0F801AA
S1130690EF0DF11D80818C2B8083D1E0C5CFDF91DC
S11306A0CF911F910F91FF90EF90DF90CF9008951D
S11306B01092093F1092083F21E02093073F609376
S11306C0063F009711F065DF089584E008959C01CA
S11306D09091073F913029F4C9016091063F59DF99
S11306E0089585E00895A1E21A2EAA1BBB1BFD0103
S11306F00DC0AA1FBB1FEE1FFF1FA217B307E407FD
S1130700F50720F0A21BB30BE40BF50B661F771F54
S1130710881F991F1A9469F7609570958095909534
S11307209B01AC01BD01CF010895E894DF93CF9301
S1130730FC01DB013FD07F936F93E9019A01AC0187
S1130740BF93AF933F932F93DF0134D026F46C1BF8
S11307507D0B820B930B9E01EB01FC0137D0AF9113
S1130760BF912F913F9132D0BE01CF01F9012F915A
S11307703F91CF91DF91089597FB10F816940008EC
S11307800F93083098F00850232F342F452F562FFD
S1130790672F782F892F902DF4CF059497958795FF
S11307A07795679557954795379527950A95AAF7AD
S11307B00F910895A29FB001B39FC001A39F01D0E0
S11307C0B29F700D811D1124911D0895F3DF460F12
S11307D0571FC81FD91F08F431960895F894FFCF06
S11307E0005EBCE2613FDD83C29C7E20A3FD1F410D
S11307F09DC3217FFCA2401E5F01E3BD3E6082DCFD
S1130800237D9FC1421CFEA0E1BF5D0380DE3C62EC
S1130810BEE0025CDF81633D7C22C09E1D43A1FFDC
S11308204618FAA427799BC584DA3866E5BB5907CC
S1130830DB856739BAE406581947A5FB7826C49ABC
S1130840653BD987045AB8E6A7F91B45C6987A24AC
S1130850F8A6441A99C7257B3A6486D85B05E7B99C
S11308608CD2306EEDB3510F4E10F2AC2F7193CD8C
S1130870114FADF3702ECC92D38D6F31B2EC0E507C
S1130880AFF1134DCE90722C6D33D18F0C52B0EE6C
S1130890326C8ED0530DEFB1F0AE4C1291CF2D735C
S11308A0CA947628ABF517490856B4EA6937D58B4C
S11308B05709EBB536688AD495CB2977F4AA48163C
S11308C0E9B7550B88D6346A2B7597C94A14F6A82C
S11308D0742AC896154BA9F7B6E80A54D7896B351C
S10908E05D000000570456
S9030000FC
